{
  "contractName": "Talant",
  "abi": [
    {
      "constant": true,
      "inputs": [],
      "name": "INITIAL_SUPPLY",
      "outputs": [
        {
          "internalType": "uint256",
          "name": "",
          "type": "uint256"
        }
      ],
      "payable": false,
      "stateMutability": "view",
      "type": "function"
    },
    {
      "constant": true,
      "inputs": [],
      "name": "decimals",
      "outputs": [
        {
          "internalType": "uint256",
          "name": "",
          "type": "uint256"
        }
      ],
      "payable": false,
      "stateMutability": "view",
      "type": "function"
    },
    {
      "constant": true,
      "inputs": [],
      "name": "name",
      "outputs": [
        {
          "internalType": "string",
          "name": "",
          "type": "string"
        }
      ],
      "payable": false,
      "stateMutability": "view",
      "type": "function"
    },
    {
      "constant": true,
      "inputs": [],
      "name": "symbol",
      "outputs": [
        {
          "internalType": "string",
          "name": "",
          "type": "string"
        }
      ],
      "payable": false,
      "stateMutability": "view",
      "type": "function"
    }
  ],
  "bytecode": "0x608060405234801561001057600080fd5b5061024c806100206000396000f3fe608060405234801561001057600080fd5b506004361061004c5760003560e01c806306fdde03146100515780632ff2e9dc146100d4578063313ce567146100f257806395d89b4114610110575b600080fd5b610059610193565b6040518080602001828103825283818151815260200191508051906020019080838360005b8381101561009957808201518184015260208101905061007e565b50505050905090810190601f1680156100c65780820380516001836020036101000a031916815260200191505b509250505060405180910390f35b6100dc6101cc565b6040518082815260200191505060405180910390f35b6100fa6101d9565b6040518082815260200191505060405180910390f35b6101186101de565b6040518080602001828103825283818151815260200191508051906020019080838360005b8381101561015857808201518184015260208101905061013d565b50505050905090810190601f1680156101855780820380516001836020036101000a031916815260200191505b509250505060405180910390f35b6040518060400160405280600c81526020017f54616c616e7420546f6b656e000000000000000000000000000000000000000081525081565b601265060ecea286a80281565b601281565b6040518060400160405280600381526020017f54414c00000000000000000000000000000000000000000000000000000000008152508156fea265627a7a72315820aa06bc40807c38ac4f4d535ec0b9dbfcafc356475d3746c4ac11414e119474dd64736f6c63430005100032",
  "source": "pragma solidity ^0.5.2; // solidity 0.5.2 버전 사용.\n\ncontract Talant { // contract 이름\n    string public constant name = \"Talant Token\"; // 토큰 이름\n    string public constant symbol = \"TAL\"; // 토큰 심볼\n    uint public constant decimals = 18; // 소수점 18자리까지 사용\n    uint public constant INITIAL_SUPPLY = 666066606660 * 10 * decimals; // 초기 발행량 네로황제를 나타내는 숫자 666\n    string constant test = \"You can't see this\"; // public 표시가 없으면 이 변수는 확인할 수 없다.\n}",
  "sourcePath": "/Users/jehunha/Desktop/talanttoken/contracts/Talant.sol",
  "compiler": {
    "name": "solc",
    "version": "0.5.16+commit.9c3226ce.Emscripten.clang"
  },
  "schemaVersion": "3.3.4",
  "updatedAt": "2021-03-04T09:35:40.372Z",
  "networkType": "ethereum",
  "devdoc": {
    "methods": {}
  },
  "userdoc": {
    "methods": {}
  }
}