{
  "contractName": "TokenLock",
  "abi": [
    {
      "inputs": [
        {
          "internalType": "contract IERC20",
          "name": "token",
          "type": "address"
        },
        {
          "internalType": "address",
          "name": "beneficiary",
          "type": "address"
        },
        {
          "internalType": "address",
          "name": "owner",
          "type": "address"
        },
        {
          "internalType": "uint256",
          "name": "releaseTime",
          "type": "uint256"
        },
        {
          "internalType": "bool",
          "name": "ownable",
          "type": "bool"
        }
      ],
      "stateMutability": "nonpayable",
      "type": "constructor"
    },
    {
      "anonymous": false,
      "inputs": [
        {
          "indexed": false,
          "internalType": "address",
          "name": "_receiver",
          "type": "address"
        },
        {
          "indexed": false,
          "internalType": "uint256",
          "name": "_amount",
          "type": "uint256"
        }
      ],
      "name": "Retrieve",
      "type": "event"
    },
    {
      "anonymous": false,
      "inputs": [
        {
          "indexed": false,
          "internalType": "address",
          "name": "_receiver",
          "type": "address"
        },
        {
          "indexed": false,
          "internalType": "uint256",
          "name": "_amount",
          "type": "uint256"
        }
      ],
      "name": "UnLock",
      "type": "event"
    },
    {
      "inputs": [],
      "name": "isOwnable",
      "outputs": [
        {
          "internalType": "bool",
          "name": "",
          "type": "bool"
        }
      ],
      "stateMutability": "view",
      "type": "function"
    },
    {
      "inputs": [],
      "name": "owner",
      "outputs": [
        {
          "internalType": "address",
          "name": "",
          "type": "address"
        }
      ],
      "stateMutability": "view",
      "type": "function"
    },
    {
      "inputs": [],
      "name": "token",
      "outputs": [
        {
          "internalType": "contract IERC20",
          "name": "",
          "type": "address"
        }
      ],
      "stateMutability": "view",
      "type": "function"
    },
    {
      "inputs": [],
      "name": "releaseTime",
      "outputs": [
        {
          "internalType": "uint256",
          "name": "",
          "type": "uint256"
        }
      ],
      "stateMutability": "view",
      "type": "function"
    },
    {
      "inputs": [],
      "name": "release",
      "outputs": [],
      "stateMutability": "nonpayable",
      "type": "function"
    },
    {
      "inputs": [],
      "name": "retrieve",
      "outputs": [],
      "stateMutability": "nonpayable",
      "type": "function"
    }
  ],
  "bytecode": "0x608060405234801561001057600080fd5b50604051610c3d380380610c3d833981810160405260a081101561003357600080fd5b810190808051906020019092919080519060200190929190805190602001909291908051906020019092919080519060200190929190505050846000806101000a81548173ffffffffffffffffffffffffffffffffffffffff021916908373ffffffffffffffffffffffffffffffffffffffff16021790555083600160006101000a81548173ffffffffffffffffffffffffffffffffffffffff021916908373ffffffffffffffffffffffffffffffffffffffff16021790555082600360006101000a81548173ffffffffffffffffffffffffffffffffffffffff021916908373ffffffffffffffffffffffffffffffffffffffff1602179055508160028190555080600360146101000a81548160ff0219169083151502179055505050505050610ada806101636000396000f3fe608060405234801561001057600080fd5b50600436106100625760003560e01c80632e64cec11461006757806386d1a69f146100715780638da5cb5b1461007b578063b91d4001146100c5578063d718fc24146100e3578063fc0c546a14610105575b600080fd5b61006f61014f565b005b6100796103a2565b005b610083610599565b604051808273ffffffffffffffffffffffffffffffffffffffff1673ffffffffffffffffffffffffffffffffffffffff16815260200191505060405180910390f35b6100cd6105c3565b6040518082815260200191505060405180910390f35b6100eb6105cd565b604051808215151515815260200191505060405180910390f35b61010d6105e4565b604051808273ffffffffffffffffffffffffffffffffffffffff1673ffffffffffffffffffffffffffffffffffffffff16815260200191505060405180910390f35b6101576105cd565b61016057600080fd5b600360009054906101000a900473ffffffffffffffffffffffffffffffffffffffff1673ffffffffffffffffffffffffffffffffffffffff163373ffffffffffffffffffffffffffffffffffffffff16146101ba57600080fd5b60008060009054906101000a900473ffffffffffffffffffffffffffffffffffffffff1673ffffffffffffffffffffffffffffffffffffffff166370a08231306040518263ffffffff1660e01b8152600401808273ffffffffffffffffffffffffffffffffffffffff1673ffffffffffffffffffffffffffffffffffffffff16815260200191505060206040518083038186803b15801561025a57600080fd5b505afa15801561026e573d6000803e3d6000fd5b505050506040513d602081101561028457600080fd5b81019080805190602001909291905050509050600081116102a457600080fd5b610312600160009054906101000a900473ffffffffffffffffffffffffffffffffffffffff16826000809054906101000a900473ffffffffffffffffffffffffffffffffffffffff1673ffffffffffffffffffffffffffffffffffffffff1661060d9092919063ffffffff16565b7f7d2175f2cd61ac503293c950aa8e75a2e2f44aa89f350cc22be3e4d9e5b3fbcf600160009054906101000a900473ffffffffffffffffffffffffffffffffffffffff1682604051808373ffffffffffffffffffffffffffffffffffffffff1673ffffffffffffffffffffffffffffffffffffffff1681526020018281526020019250505060405180910390a150565b6002544210156103b157600080fd5b60008060009054906101000a900473ffffffffffffffffffffffffffffffffffffffff1673ffffffffffffffffffffffffffffffffffffffff166370a08231306040518263ffffffff1660e01b8152600401808273ffffffffffffffffffffffffffffffffffffffff1673ffffffffffffffffffffffffffffffffffffffff16815260200191505060206040518083038186803b15801561045157600080fd5b505afa158015610465573d6000803e3d6000fd5b505050506040513d602081101561047b57600080fd5b810190808051906020019092919050505090506000811161049b57600080fd5b610509600160009054906101000a900473ffffffffffffffffffffffffffffffffffffffff16826000809054906101000a900473ffffffffffffffffffffffffffffffffffffffff1673ffffffffffffffffffffffffffffffffffffffff1661060d9092919063ffffffff16565b7fb371d42b3715509a27f3109f6ac1ef6b7d7e7f8e9232b738ed17338be6cf9580600160009054906101000a900473ffffffffffffffffffffffffffffffffffffffff1682604051808373ffffffffffffffffffffffffffffffffffffffff1673ffffffffffffffffffffffffffffffffffffffff1681526020018281526020019250505060405180910390a150565b6000600360009054906101000a900473ffffffffffffffffffffffffffffffffffffffff16905090565b6000600254905090565b6000600360149054906101000a900460ff16905090565b60008060009054906101000a900473ffffffffffffffffffffffffffffffffffffffff16905090565b6106c08363a9059cbb60e01b8484604051602401808373ffffffffffffffffffffffffffffffffffffffff1673ffffffffffffffffffffffffffffffffffffffff16815260200182815260200192505050604051602081830303815290604052907bffffffffffffffffffffffffffffffffffffffffffffffffffffffff19166020820180517bffffffffffffffffffffffffffffffffffffffffffffffffffffffff83818316178352505050506106c5565b505050565b6060610727826040518060400160405280602081526020017f5361666545524332303a206c6f772d6c6576656c2063616c6c206661696c65648152508573ffffffffffffffffffffffffffffffffffffffff166107b49092919063ffffffff16565b90506000815111156107af5780806020019051602081101561074857600080fd5b81019080805190602001909291905050506107ae576040517f08c379a000000000000000000000000000000000000000000000000000000000815260040180806020018281038252602a815260200180610a7b602a913960400191505060405180910390fd5b5b505050565b60606107c384846000856107cc565b90509392505050565b606082471015610827576040517f08c379a0000000000000000000000000000000000000000000000000000000008152600401808060200182810382526026815260200180610a556026913960400191505060405180910390fd5b61083085610975565b6108a2576040517f08c379a000000000000000000000000000000000000000000000000000000000815260040180806020018281038252601d8152602001807f416464726573733a2063616c6c20746f206e6f6e2d636f6e747261637400000081525060200191505060405180910390fd5b600060608673ffffffffffffffffffffffffffffffffffffffff1685876040518082805190602001908083835b602083106108f257805182526020820191506020810190506020830392506108cf565b6001836020036101000a03801982511681845116808217855250505050505090500191505060006040518083038185875af1925050503d8060008114610954576040519150601f19603f3d011682016040523d82523d6000602084013e610959565b606091505b5091509150610969828286610988565b92505050949350505050565b600080823b905060008111915050919050565b6060831561099857829050610a4d565b6000835111156109ab5782518084602001fd5b816040517f08c379a00000000000000000000000000000000000000000000000000000000081526004018080602001828103825283818151815260200191508051906020019080838360005b83811015610a125780820151818401526020810190506109f7565b50505050905090810190601f168015610a3f5780820380516001836020036101000a031916815260200191505b509250505060405180910390fd5b939250505056fe416464726573733a20696e73756666696369656e742062616c616e636520666f722063616c6c5361666545524332303a204552433230206f7065726174696f6e20646964206e6f742073756363656564a2646970667358221220fc965fb06cd10399cf44a861200da68adb9352c929ca83aa2ccf6d63b425ae6e64736f6c63430006020033",
  "source": "pragma solidity ^0.6.0;\n\nimport 'openzeppelin-solidity/contracts/token/ERC20/SafeERC20.sol';\n\ncontract TokenLock {\n    using SafeERC20 for IERC20;\n\n    // IERC20 토큰 선언\n    IERC20 private _token;\n\n    //릴리즈 이후 토큰 분배받는사람들?\n    address private _beneficiary;\n\n    // 토큰 락 풀리는시간\n    uint256 private _releaseTime;\n\n    \n    // 토큰 락 하는사람\n    address private _owner;\n    bool private _ownable;\n\n    event UnLock(address _receiver, uint256 _amount);\n    event Retrieve(address _receiver, uint256 _amount);\n    \n\n    modifier onlyOwner() {\n        require(isOwnable());\n        require(msg.sender == _owner);\n        _;\n    }\n\n    constructor(IERC20 token, address beneficiary, address owner, uint256 releaseTime, bool ownable) public {\n        _token = token;\n        _beneficiary = beneficiary;\n        _owner = owner;\n        _releaseTime = releaseTime;\n        _ownable = ownable;\n    }\n\n    function isOwnable() public view returns (bool) {\n        return _ownable;\n    }\n\n    function owner() public view returns (address) {\n        return _owner;\n    }\n\n    /**\n    토큰 반환\n     */\n    function token() public view returns (IERC20) {\n        return _token;\n    }\n\n    /**\n    언제 반환되는지\n     */\n    function releaseTime() public view returns (uint256) {\n        return _releaseTime;\n    }\n\n    /**\n    토큰 분배시키는 function\n     */\n    function release() public {\n        require(block.timestamp >= _releaseTime); //분배 시간 지나면 통과\n\n        uint256 amount = _token.balanceOf(address(this));\n        require(amount>0);  //분배량 0보다 클때만 분배되도록.\n\n        _token.safeTransfer(_beneficiary, amount);\n        emit UnLock(_beneficiary, amount);\n    }\n\n    /**\n    오너가 직접 토큰 분배를 할 수 있도록 한다.\n     */\n    function retrieve() onlyOwner public {\n        \n        uint256 amount = _token.balanceOf(address(this));\n        require(amount>0);  //분배량 0보다 클때만 분배되도록.\n\n        _token.safeTransfer(_beneficiary, amount);\n        emit Retrieve(_beneficiary, amount);\n    }\n\n\n    \n}",
  "sourcePath": "/Users/jehunha/Desktop/talanttoken/contracts/TokenLock.sol",
  "compiler": {
    "name": "solc",
    "version": "0.6.2+commit.bacdbe57.Emscripten.clang"
  },
  "schemaVersion": "3.3.4",
  "updatedAt": "2021-03-05T09:14:03.499Z",
  "devdoc": {
    "methods": {}
  },
  "userdoc": {
    "methods": {
      "release()": {
        "notice": "토큰 분배시키는 function"
      },
      "releaseTime()": {
        "notice": "언제 반환되는지"
      },
      "retrieve()": {
        "notice": "오너가 직접 토큰 분배를 할 수 있도록 한다."
      },
      "token()": {
        "notice": "토큰 반환"
      }
    }
  }
}